:020000040800F2
:1000000000040020390200083B0200083B020008FF
:100010003B0200083B0200083B0200083B020008CC
:100020003B0200083B0200083B020008B123000825
:100030003B0200083B0200083B020008D1210008F7
:100040003B0200083B0200083B0200083B0200089C
:100050003B0200083B020008811B0008F11B00085E
:10006000611C0008D11C0008411D00083B0200086B
:100070003B0200083B0200083B0200083B0200086C
:100080003B0200083B0200083B0200083B0200085C
:100090003B0200083B0200083B020008B11D0008BB
:1000A0003B0200083B0200083B0200083B0200083C
:1000B0003B0200083B0200083B0200083B0200082C
:1000C0003B0200083B0200083B0200083B0200081C
:1000D0003B0200083B0200083B0200083B0200080C
:1000E000811F00083B0200083B0200083B02000899
:1000F0003B0200083B0200083B0200083B020008EC
:100100003B0200083B0200083B0200083B020008DB
:100110003B0200083B0200083B0200083B020008CB
:100120003B0200083B0200083B0200083B020008BB
:100130003B0200083B0200083B0200083B020008AB
:100140003B0200083B0200083B0200083B0200089B
:100150003B0200083B0200083B0200083B0200088B
:1001600072B6264880F30888254880F30988254818
:1001700025490860022080F31488BFF36F8F01F0D7
:10018000B7FC02F06DF84FF0553020491B4A914200
:100190003CBF41F8040BFAE71D49194A91423CBFA4
:1001A00041F8040BFAE71B491B4A1C4B9A423EBF1D
:1001B00051F8040B42F8040BF8E700201849194ADB
:1001C00091423CBF41F8040BFAE701F0A9FC01F0B1
:1001D00097FC154C154DAC4203DA54F8041B8847C4
:1001E000F9E702F0F5F8124C124DAC4203DA54F87C
:1001F000041B8847F9E701F08BBC000000040020D5
:10020000000800200000000808ED00E000000020C9
:10021000000400202C2B00080008002020080020EB
:100220002008002008150020600100086001000877
:10023000600100086001000892E700F000F8FEE7A6
:100240002DE9F04FC1F80CD0C3689D46BDE8F08F92
:10025000002383F311882846A047002002F060F8AD
:10026000FEE702F03DF800DFFEE7000000000000BE
:10027000002330B5164D032AAD5C4FF008049C46B0
:100280001A469E4608BF016111F0800F4FEA021224
:100290004FEA03134FEA0C1C4FEA0E1E0CBF42F04C
:1002A0000F022B4311F4004F0CBF4EF00F0E4CEA1F
:1002B000050C013C4FEA4101E6D1416801EA0E011B
:1002C00041EA0C01416001680A401343036030BDFC
:1002D000982A000800000000000000000000000054
:1002E000FEE700BF0000000000000000000000006A
:1002F000014B5B6883607047001000E00000000065
:100300000E4B0F4A5B68926881689B1A5B1A10B4A7
:10031000D0E90342D21841690261426841F100010B
:100320009342026804F1010488BF43609342C0E92C
:100330000234416110BC38BF03607047001000E018
:10034000701300200000000000000000000000000A
:10035000302310B483F311880B4B49425C68201A98
:1003600008401968821A8A4207D3944205D35A601A
:10037000002383F3118810BC70470020002383F30F
:10038000118810BC704700BF6813002000000000F7
:10039000064B49425A68101A08401968884203D32C
:1003A000824201D3586070470020704768130020D4
:1003B000302383F311880D4B5B6813F4006302D183
:1003C00083F311887047EFF309834FF08072203B6D
:1003D000DA6183F30988064A1168D26889689268ED
:1003E00091428CBF034A044A9A61704700ED00E0D5
:1003F000801300206302000866020008000000006D
:10040000302383F3118803689BB110B44FF0FF31A0
:1004100000249A68D0F808C062449A604268136069
:100420005A60064B04609961002383F3118810BC65
:100430007047002383F31188704700BF80130020AA
:10044000023870B4032876D8DFE800F0081B2E02CB
:100450004D4D2A78002A53D070BC70474B4D2A78F6
:10046000002AF9D14A484B4C84465CF8103F02E020
:100470001B68634553D09968A3420A44F8D1464BA0
:1004800024E0464D2A78002AE6D14148444C84466F
:100490005CF8103F02E01B68634549D09968A342AD
:1004A0000A44F8D13F4B11E03F4D2A78002AD3D1BE
:1004B00037483E4C84465CF8103F02E01B686345B9
:1004C00033D09968A3420A44F8D1394B1A603023DB
:1004D00083F31188236863B100264FF0FF319A68D7
:1004E000D4F808C062449A60626813605A6026605B
:1004F0008161002383F3118801232B7070BC704746
:1005000023482C4C84465CF8103F02E01B6863458E
:1005100008D09968A3420A44F8D1274BD6E74FF098
:10052000FF32ACE74FF0FF32F7E74FF0FF32CCE796
:100530004FF0FF32B6E7214D2B78002B8CD11448B9
:100540001F4A044654F8101F8E689142334404D069
:100550000968A142F8D14FF0FF331A490B603023EC
:1005600083F311881368002BC3D000264FF0FF34AB
:100570009968D2F808C06144996051680B6059606D
:1005800016608461B5E700BFB4120020CC120020D1
:100590008013002020130020C8120020C412002065
:1005A00008130020C0120020BC120020F01200200E
:1005B000B8120020D8120020B0120020D41200205F
:1005C00038130020D01200200000000000000000BE
:1005D0004FF00F0C012230B40F4D00F003016C6995
:1005E00089000CFA01FC24EA0C0402FA01F10B4B1D
:1005F0000C436C61996802FA00F021EA00019960ED
:10060000DA6830BC0243DA601A6802431A605A683A
:1006100022EA00025A6070470000014000040140D5
:10062000302383F3118891F824300C2B10D8DFE8A5
:1006300003F02A0F0F260B070F0B0F0F0F0F0B00E6
:100640008A6A936801339360D1E9003213605A607B
:1006500010B400224FF0FF348B6988688C6281F8F7
:1006600024201B689A688242FBD25A680020C1E9A4
:1006700000321160596080F3118810BC704700226D
:100680008B6A1A60E4E7002383F31188704700BF88
:10069000184B026810B4DC68C3688242E36325D05B
:1006A000216C4BB11A68934203D09268914238BFD3
:1006B0001146DB68002BF5D14FF0000CA1600368F8
:1006C0001A68D96B9C68026050609A69C0E902316F
:1006D000D86383F824C012689168A142FBD25168A4
:1006E00010BCC3E900210B6053607047002310BCAD
:1006F000936070478013002000000000000000009D
:10070000302383F31188184A1368092B0CD8174932
:10071000013313600B68164A18700133A2F10A0006
:10072000934228BF03460B60124A1368934217D0C6
:10073000002010B41C689969146062609C6898621B
:1007400083F8240009688A68A242FBD24A68C3E998
:10075000001213604B60002383F3118810BC7047B4
:10076000002383F311887047641300206013002076
:100770005E130020180800200000000000000000A8
:10078000054B1A7822B1002202201A70FFF7B8BF79
:1007900001201870FFF7B4BF5013002000000000C4
:1007A000302310B483F31188164A1368092B0DD82F
:1007B00015490133154813600A68A0F10A04531C57
:1007C000834228BF234605200B601070104A13682F
:1007D000934211D000201C689969146062609C6883
:1007E000986283F8240009688A68A242FBD24A68AA
:1007F000C3E9001213604B60002383F3118810BC1F
:10080000704700BF64130020601300205E130020B7
:100810001808002000000000000000000000000098
:10082000302310B483F31188164A1368092B0DD8AE
:1008300015490133154813600A68A0F10A04531CD6
:10084000834228BF234606200B601070104A1368AD
:10085000934211D000201C689969146062609C6802
:10086000986283F8240009688A68A242FBD24A6829
:10087000C3E9001213604B60002383F3118810BC9E
:10088000704700BF64130020601300205E13002037
:100890001808002000000000000000000000000018
:1008A000302310B483F31188164A1368092B0DD82E
:1008B00015490133154813600A68A0F10A04531C56
:1008C000834228BF234607200B601070104A13682C
:1008D000934211D000201C689969146062609C6882
:1008E000986283F8240009688A68A242FBD24A68A9
:1008F000C3E9001213604B60002383F3118810BC1E
:10090000704700BF64130020601300205E130020B6
:100910001808002000000000000000000000000097
:10092000302310B483F31188164A1368092B0DD8AD
:1009300015490133154813600A68A0F10A04531CD5
:10094000834228BF234608200B601070104A1368AA
:10095000934211D000201C689969146062609C6801
:10096000986283F8240009688A68A242FBD24A6828
:10097000C3E9001213604B60002383F3118810BC9D
:10098000704700BF64130020601300205E13002036
:100990001808002000000000000000000000000017
:1009A000302310B483F31188164A1368092B0DD82D
:1009B00015490133154813600A68A0F10A04531C55
:1009C000834228BF234609200B601070104A136829
:1009D000934211D000201C689969146062609C6881
:1009E000986283F8240009688A68A242FBD24A68A8
:1009F000C3E9001213604B60002383F3118810BC1D
:100A0000704700BF64130020601300205E130020B5
:100A10001808002000000000000000000000000096
:100A2000302310B483F31188164A1368092B0DD8AC
:100A300015490133154813600A68A0F10A04531CD4
:100A4000834228BF234600200B601070104A1368B1
:100A5000934211D000201C689969146062609C6800
:100A6000986283F8240009688A68A242FBD24A6827
:100A7000C3E9001213604B60002383F3118810BC9C
:100A8000704700BF64130020601300205E13002035
:100A90001808002000000000000000000000000016
:100AA000302310B483F31188164A1368092B0DD82C
:100AB00015490133154813600A68A0F10A04531C54
:100AC000834228BF234603200B601070104A13682E
:100AD000934211D000201C689969146062609C6880
:100AE000986283F8240009688A68A242FBD24A68A7
:100AF000C3E9001213604B60002383F3118810BC1C
:100B0000704700BF64130020601300205E130020B4
:100B10001808002000000000000000000000000095
:100B2000302310B483F31188164A1368092B0DD8AB
:100B300015490133154813600A68A0F10A04531CD3
:100B4000834228BF234604200B601070104A1368AC
:100B5000934211D000201C689969146062609C68FF
:100B6000986283F8240009688A68A242FBD24A6826
:100B7000C3E9001213604B60002383F3118810BC9B
:100B8000704700BF64130020601300205E13002034
:100B90001808002000000000000000000000000015
:100BA000023830B4032800F2A880DFE800F036599C
:100BB0007C02302383F311886A4C2368002B00F0F9
:100BC00098809A68A0680025024460689A60036073
:100BD00058604FF0FF336448256083610025634B04
:100BE000E36003699A68C4E90455914204D91B681B
:100BF000891A9A688A42FAD35A68A160C4E9003215
:100C000014609A685C60521A4FF0FF319A600023BA
:100C1000816183F3118830BC7047302383F31188DE
:100C2000534C2368002B60D09A68A06800250244CA
:100C300060689A60036058604FF0FF334A4825604F
:100C4000836100254B4BE36003699A68C4E904554E
:100C50009142D1D91B68891A9A688A42FAD3CBE7A4
:100C6000302383F31188444C2368002B3FD09A68CB
:100C7000A0680025024460689A60036058604FF0E5
:100C8000FF3339482560836100253C4BE3600369ED
:100C90009A68C4E904559142AED91B68891A9A68CA
:100CA0008A42FAD3A8E7302383F31188344C2368AF
:100CB0000BB39A68A0680025024460689A600360DC
:100CC00058604FF0FF3328482560836100252D4B85
:100CD000E36003699A68C4E9045591428CD91B68A2
:100CE000891A9A688A42FAD386E71F48A9E71E48FC
:100CF000CAE71D4872E71C48E8E7302383F31188F0
:100D0000214B1A68002A2AD090689C68002520444C
:100D10005C689060226054604FF0FF3212481D60A2
:100D200082610025194ADA6002699468C3E90455B2
:100D3000A14204D91268091B94688C42FAD3546802
:100D40009960C3E90024236094685360641A4FF0EB
:100D5000FF3194600023816183F311885BE70248CF
:100D6000DFE700BFD812002080130020A10900088F
:100D7000201300202108000808130020A108000803
:100D8000F01200202109000838130020A1070008F4
:100D90000238F0B4032800F2C580DFE800F009440F
:100DA0006D027E4D2B78002B40F08F80F0BC704799
:100DB0007B4D2B78002BF9D07A4A3023126883F3CD
:100DC0001188794C2368002B00F0A48000264FF096
:100DD000FF37A068996801449960744861680B60A6
:100DE000596026608761002671490369E16099684E
:100DF000C4E904668A4204D91B68521A9968914270
:100E0000FAD34FF0FF36A26099682360891A5A68B6
:100E100062601460C3E901410023866183F3118895
:100E20002B70F0BC7047634D2B78002BBED0624A0C
:100E30003023126883F31188604C2368002B6DD037
:100E400000264FF0FF37A068996801449960574821
:100E500061680B6059602660876100265849036904
:100E6000E1609968C4E904668A42CAD91B68521ACB
:100E700099689142FAD3C4E7524D2B78002B95D054
:100E8000514A3023126883F31188504C2368002B99
:100E900042D000264FF0FF37A0689968014499605E
:100EA000424861680B6059602660876100264849A6
:100EB0000369E1609968C4E904668A42A1D91B68A4
:100EC000521A99689142FAD39BE7424A302312683A
:100ED00083F31188404C236813B300264FF0FF378B
:100EE000A068996801449960304861680B60596056
:100EF00026608761002639490369E1609968C4E981
:100F000004668A427FF67DAF1B68521A9968914247
:100F1000FAD376E7254866E72448C7E723489CE7E5
:100F20002248E7E72E4D2B78002B3FF43FAF2D4AA8
:100F30003023116883F311882B4B1A68002A2BD0B9
:100F400000244FF0FF3690689F68384490605868DE
:100F50000260506015481C6086610026234C0269BF
:100F6000DC609468C3E90466A14204D91268091BD5
:100F700094688C42FAD34FF0FF36996094681A60F7
:100F8000641A516859600B60C2E90134002386611C
:100F900083F311882B7009E70448DEE7B4120020C0
:100FA000CC120020C8120020201300208013002043
:100FB00021080008C4120020C012002008130020DD
:100FC000A1080008BC120020B8120020F012002076
:100FD00021090008B0120020D8120020A109000841
:100FE000D4120020D012002038130020A1070008DE
:100FF000F0B48368354CE168002B47D08D689A685F
:10100000954217D993F824209D60062A44D0072AD8
:101010002DD07AB9D3E900673E60776083F8242049
:101020009A6912689668AE42FBD21A6055685D6094
:101030002B605360034603E08A689D68954202D3A3
:101040001B689842F8D106255A68C1E90032116040
:10105000012259608862206881F8245003685C602E
:1010600080F824202360E060F0BCFFF7E9B89D6AB7
:101070005F681E682A463E60776003E096689F6856
:10108000BE42D2D312689542F8D1CEE7CB6BF0BC0A
:10109000C0E90213C86370479D6A5F681E682A46EC
:1010A0003E60776003E096689F68BE4202D3126894
:1010B0009542F8D156681A605E6033605360AB6841
:1010C0008D689A68AA429DD3B4E700BF80130020C0
:1010D0009F4D2DE98048AA46A9469E4FDFF878B279
:1010E00083B0302686F311889C48FFF781FF3B6868
:1010F000002B36D14FF007080196019B83F311882E
:10110000DBF80C60F46B2046FFF7C2FAB562904B37
:101110004D4603E09968B268914202D31B6853457B
:10112000F8D101225968336071600E60DBF80C1051
:10113000DBF800005E6081F824800368C3F804B027
:1011400080F82420CBF80030CBF80C00FFF778F8BB
:101150002046FFF74DFF002383F311883B68002BE7
:10116000CBD07F4A013B3B6013687E4913F8014BAB
:1011700001F10A06B34228BF0B4678481360FFF717
:1011800087FA002383F31188092CAAD8DFE814F02A
:1011900061014E010A01C50038011F01A800940039
:1011A00080000A00704B1B780B2B9AD100226F49EC
:1011B00030230A706C490A7083F311886C4E3368CF
:1011C0005BB14FF0FF309968B46821449960716851
:1011D0000B6059603260CBF81800002181F3118850
:1011E000302383F31188634E33685BB14FF0FF30D7
:1011F0009A68B46822449A60726813605A603160D9
:10120000CBF81800002181F31188302383F3118873
:10121000594E33685BB14FF0FF309A68B46822448E
:101220009A60726813605A603160CBF81800002130
:1012300081F31188302383F31188504E33685BB1FA
:101240004FF0FF309A68B46822449A607268136065
:101250005A603160CBF81800002181F311883023E7
:1012600083F31188464E33685BB14FF0FF309A68C4
:10127000B46822449A60726813605A603160CBF897
:101280001800002383F311883E4B3F4A136128E77F
:10129000354B1B78082B00F01882092B7FF421AF07
:1012A000324A334813700A232F4A1370FFF7A8F805
:1012B000364B354A136114E72B4B1B78042B00F097
:1012C000AB82052B7FF40DAF284A29481370062303
:1012D000254A1370FFF794F82D4B2B4A136100E752
:1012E000214B1C78022C00F00F82032C7FF4F9AE06
:1012F0001E4B1D4A1C7004231370264B224A1C48A7
:101300001361FFF77DF820462349FFF749FC4FF4AE
:101310007A710120FFF744FCE3E6134B1B78012BA5
:1013200000F0B882072B7FF4DCAE104A0420137063
:1013300008230D4A19491370194B134A1361FFF71B
:101340002FFC4FF47A710120FFF72AFCC9E600BF99
:1013500018080020641300208013002008080020D3
:10136000A812002054130020AD120020AC1200205F
:10137000381300202013002008130020F012002052
:10138000D81200200100FE01000801404900B6010A
:101390004500BA0185007A0100770100C0D4010040
:1013A00089007601A84B1878002840F01C81A74BD3
:1013B0001B780C2B00F07E81A54A936813F4005F24
:1013C0004FF400530ABFA24A1361536189E69F4B51
:1013D0001B78023B072B3FF684AE01A252F823F0A4
:1013E000CB140008BB140008AB1400089B140008C1
:1013F000E3100008E31000088B1400086D140008C7
:10140000924B1B78062B00F0FF800A2B7FF469AE0D
:101410008D4A49F6404113700B238C4A0520137006
:101420008C4B8D4A1361FFF7BBFB5AE6874B1B7849
:101430000B2B00F23483DFE813F0D200CE00BB00A8
:10144000A700A3008F008B00870083006F0061005E
:1014500050007E4A1378002B7FF443AE7A490B701C
:10146000012313707D4B7C4A13613AE60923764AC7
:1014700013700823754A1370794B774A4FF47A71C9
:1014800001201361FFF78CFB2BE608236E4A1370D3
:1014900009236E4A1370734BEFE705236A4A1370F2
:1014A00004236A4A1370704BE7E70423664A1370FB
:1014B0000523664A13706D4BDFE70323624A1370FE
:1014C0000223624A13706A4BD7E702235E4A137005
:1014D00003235E4A1370674BCFE74FF400500B2293
:1014E0000C235B490861584905200A70574A13705C
:1014F000594B614A1A61FEF7A3FFF2E54FF4005021
:101500000A220C23524908614F490A704F4A13704E
:10151000514B594A1A61E4E54FF4005009220C235B
:101520004B490861484904200A70484A13704A4BE5
:10153000514A1A61FEF784FF0120FEF781FFD0E5D2
:101540004FF400500822EAE74FF400500722D8E792
:101550004FF400500622D4E74FF4005005220C232C
:101560003B490861384903200A70384A13703A4BE6
:10157000414A1A61FEF764FF0120FEF761FFB0E502
:101580004FF400500422EAE74FF4005003220C23EA
:101590002F4908612C4902200A702C4A13702E4BE7
:1015A000354A1A61FEF74CFF0120FEF749FF98E526
:1015B0004FF400510C230220254A1161234A137075
:1015C000214B2D4A1870244B1A61FEF739FF012078
:1015D000FEF736FF85E54FF40050012291E74FF406
:1015E000005000228DE7012817D1184B1B780C2BD7
:1015F0007FF4E2AE4FF40052154B5A61134B174A79
:101600001870154B1A616CE50F4A137007230F4AC7
:1016100013701A4B104A136163E5022830D10B4B4B
:101620001B780C2B7FF4C8AE4FF40052084B5A6164
:10163000064B0F4A1870084B1A61FFF7A9FB0120EF
:10164000FFF7A6FB4DE500BFAC120020AD12002055
:101650000010014091006E01000801402300DC01F0
:10166000890076010901F60085007A010501FA007A
:1016700083007C010301FC000100FE012900D6016A
:10168000032800F09281062800F07F81042800F0F2
:101690006681052840F09F816F4B1B780C2B7FF4EF
:1016A0008BAE4FF400526D4B5A616B4B6C4A187005
:1016B0006C4B61E14FF40053684A5361664BA2F5ED
:1016C00000621870684B13610BE5684A13700A23B7
:1016D000614A1370302383F31188654E336863B118
:1016E00000204FF0FF319A68B46822449A60726813
:1016F00013605A603060CBF81810002383F3118810
:101700005C4B584A1361ECE4584B534A1C70042359
:101710001370594B534A1361302383F31188544E8D
:10172000336863B100204FF0FF319A68B4682244F7
:101730009A60726813605A603060CBF8181000210C
:1017400081F31188302383F311884C4E33685BB1E9
:101750004FF0FF309A68B46822449A607268136050
:101760005A603160CBF818000022444C444B454885
:10177000E360DBF810309968C4E904228142424AF0
:1017800004D81B68521A99689142FAD34FF0FF307F
:101790003A4CA26099682360891A5A6862601460A2
:1017A000C3E901410021CBF8180081F311883023EF
:1017B00083F311882E4E33684BB19A68B468224483
:1017C0009A60726813605A603160CBF8180000228A
:1017D00027482E4BC360DBF810309968C0E904221B
:1017E000B1F57A7F4FF47A7204D21B68521A996865
:1017F0009142FAD34FF0FF301D4CA26099682360EC
:10180000891A5A6862601460C3E901410023CBF869
:10181000180083F3118864E4144A137006230E4AF7
:101820001370302383F31188114E336863B10020A5
:101830004FF0FF319A68B46822449A60726813606E
:101840005A603060CBF81810002383F31188104BD6
:10185000044A136145E400BFAD12002000100140AE
:101860000501FA00000801400100FE01AC12002051
:10187000381300204900B60185007A0108130020C2
:10188000A1080008FF76010000770100A107000809
:101890004500BA01854A13700223854A1370854BAF
:1018A000854A1361302383F31188844E336863B112
:1018B00000204FF0FF319A68B46822449A60726841
:1018C00013605A603060CBF8181044F61F60002295
:1018D0007A4C7B4BE360DBF810309968C4E9042252
:1018E000814244F6206204D81B68521A99689142DA
:1018F000FAD34FF0FF30714CA26099682360891AC7
:101900005A6862601460C3E901410021CBF81800F5
:1019100081F31188302383F311886A4E33684BB109
:101920009A68B46822449A60726813605A603160A1
:10193000CBF8180000226348634BC360DBF810301B
:101940009968C0E90422B1F57A7F4FF47A72BFF446
:1019500051AF1B68521A99689142FAD34AE7544B27
:101960001B780C2B7FF428AD4FF40052574B5A6173
:101970004F4B574A1870504B03201A61FFF708FA73
:101980000120FFF705FAFFF7ACBB494B1B780C2B86
:101990007FF412AD4FF400524C4B5A61444B4D4A08
:1019A0001870454B1A61FFF79CBB414B1B780C2B01
:1019B0007FF402AD4FF40052444B5A613C4B464A0F
:1019C00018703D4B02201A61FFF7E2F90120FFF782
:1019D000DFF9FFF786BB07280FD1354B1B780C2B9F
:1019E0007FF4EAAC4FF40052384B5A61304B3B4A1B
:1019F0001870314B1A61FFF774BB0A2819D00828F8
:101A000028D0092835D12A4B1B780C2B7FF4D4AC75
:101A10004FF400522D4B5A61254B314A1870264B1A
:101A200004201A61FFF7B4F90120FFF7B1F9FFF7BD
:101A300058BB1F4B1B780C2B7FF4BEAC4FF40051EE
:101A40000A23224A51611A4A13701B4B254A1A6114
:101A5000FFF747BB164B1B780C2B7FF4ADAC4FF454
:101A600000510823194A5161114A1370124B1E4A42
:101A7000D6E70B287FF4A0AC0D4B1B780C2B7FF422
:101A80009BAC4FF40052114B5A61094B174A187026
:101A9000094B05201A61FFF77BF9FFF722BB4FF4D2
:101AA00000520A4B5A61FFF71CBB00BFAC1200206A
:101AB000AD12002083007C010008014020130020AB
:101AC0002108000838130020A10700080010014079
:101AD00085007A014500BA010301FC002900D60106
:101AE0000901F6004900B6018900760191006E01F6
:101AF000704700BF00000000000000000000000070
:101B0000704700BF0000000000000000000000005F
:101B1000FEE700BF00000000000000000000000021
:101B200070B5134D05F1800455E90301884255F85D
:101B3000102C0DD20346043A52F8046F43F8046B9C
:101B40008B42F9D34B1E1B1A23F0030304331844B2
:101B500055F8042C824207D9013A121A22F00302E6
:101B60000021043200F01EFF1035A542DCD170BD0B
:101B7000BC2A000800000000000000000000000077
:101B8000184A516913680B4003F0010353613BB3DA
:101B900070B5154CA3680BB1E0689847302383F308
:101BA00011882168A14214D000260B4609689A6961
:101BB0009D684C6021609E6283F824601268906882
:101BC000A842FBD25068A142C3E9002003605360E1
:101BD000EBD1002383F31188BDE87040FEF7E8BB2A
:101BE000FEF7E6BB000401400814002000000000DE
:101BF000184AF8B5516913680B4003F002035361AA
:101C00001BB3154FBB690BB1F8699847302383F3B9
:101C10001188124C3969A14214D000260B4609687C
:101C20009A699D6839614C609E6283F824601268ED
:101C30009068A842FBD25068A142C3E9002003602B
:101C40005360EBD1002383F31188BDE8F840FEF721
:101C5000AFBB00BF0004014008140020181400208E
:101C6000184AF8B5516913680B4003F00403536137
:101C70001BB3154FBB6A0BB1F86A9847302383F347
:101C80001188124C396AA14214D000260B4609680B
:101C90009A699D6839624C609E6283F8246012687C
:101CA0009068A842FBD25068A142C3E900200360BB
:101CB0005360EBD1002383F31188BDE8F840FEF7B1
:101CC00077BB00BF00040140081400202814002046
:101CD000184AF8B5516913680B4003F008035361C3
:101CE0001BB3154FBB6B0BB1F86B9847302383F3D5
:101CF0001188124C396BA14214D000260B4609689A
:101D00009A699D6839634C609E6283F8246012680A
:101D10009068A842FBD25068A142C3E9002003604A
:101D20005360EBD1002383F31188BDE8F840FEF740
:101D30003FBB00BF000401400814002038140020FD
:101D4000184AF8B5516913680B4003F0100353614A
:101D50001BB3154FBB6C0BB1F86C9847302383F362
:101D60001188124C396CA14214D000260B46096828
:101D70009A699D6839644C609E6283F82460126899
:101D80009068A842FBD25068A142C3E900200360DA
:101D90005360EBD1002383F31188BDE8F840FEF7D0
:101DA00007BB00BF000401400814002048140020B5
:101DB000F8B56C4B5A691D68154005F47872AC068D
:101DC0005A6125D5684CA36D0BB1E06D984730235F
:101DD00083F31188654E216DB14216D04FF0000C8F
:101DE0000B4609689A699F6821654E60C3F828C050
:101DF00083F824C012689068B842FBD25068B142A0
:101E0000C3E9002003605360EAD1002383F3118803
:101E1000680625D5544CA36E0BB1E06E984730236D
:101E200083F31188524E216EB14216D04FF0000C50
:101E30000B4609689A699F6821664E60C3F828C0FE
:101E400083F824C012689068B842FBD25068B1424F
:101E5000C3E9002003605360EAD1002383F31188B3
:101E6000290625D5404CA36F0BB1E06F984730236E
:101E700083F311883F4E216FB14216D04FF0000C12
:101E80000B4609689A699F6821674E60C3F828C0AD
:101E900083F824C012689068B842FBD25068B142FF
:101EA000C3E9002003605360EAD1002383F3118863
:101EB000EA0529D52C4CD4F8883013B1D4F88C001D
:101EC0009847302383F311882B4ED4F88010B14209
:101ED00017D04FF0000C0B4609689A699F68C4F848
:101EE00080104E60C3F828C083F824C01268906840
:101EF000B842FBD25068B142C3E90020036053608E
:101F0000E9D1002383F31188AB0527D5164CD4F80B
:101F1000983013B1D4F89C009847302383F311888C
:101F2000164DD4F89010A94215D000270B46096829
:101F30009A699E68C4F890104D609F6283F824707F
:101F400012689068B042FBD25068A942C3E90020F1
:101F500003605360EAD1002383F31188BDE8F840A1
:101F6000FEF726BA0004014008140020581400208F
:101F70006814002078140020881400209814002091
:101F8000F8B5884B5A691D68154005F47C426E050A
:101F90005A6129D5844CD4F8A83013B1D4F8AC00D8
:101FA0009847302383F31188804ED4F8A010B142B3
:101FB00017D04FF0000C0B4609689A699F68C4F867
:101FC000A0104E60C3F828C083F824C0126890683F
:101FD000B842FBD25068B142C3E9002003605360AD
:101FE000E9D1002383F311882C0529D56E4CD4F850
:101FF000B83013B1D4F8BC009847302383F311886C
:102000006B4ED4F8B010B14217D04FF0000C0B4615
:1020100009689A699F68C4F8B0104E60C3F828C078
:1020200083F824C012689068B842FBD25068B1426D
:10203000C3E9002003605360E9D1002383F31188D2
:10204000E80429D5584CD4F8C83013B1D4F8CC00E2
:102050009847302383F31188564ED4F8C010B1420C
:1020600017D04FF0000C0B4609689A699F68C4F8B6
:10207000C0104E60C3F828C083F824C0126890686E
:10208000B842FBD25068B142C3E9002003605360FC
:10209000E9D1002383F31188A90429D5424CD4F84F
:1020A000D83013B1D4F8DC009847302383F311887B
:1020B000414ED4F8D010B14217D04FF0000C0B466F
:1020C00009689A699F68C4F8D0104E60C3F828C0A8
:1020D00083F824C012689068B842FBD25068B142BD
:1020E000C3E9002003605360E9D1002383F3118822
:1020F0006A0429D52C4CD4F8E83013B1D4F8EC009C
:102100009847302383F311882C4ED4F8E010B14265
:1021100017D04FF0000C0B4609689A699F68C4F805
:10212000E0104E60C3F828C083F824C0126890689D
:10213000B842FBD25068B142C3E90020036053604B
:10214000E9D1002383F311882B0427D5164CD4F84A
:10215000F83013B1D4F8FC009847302383F311888A
:10216000174DD4F8F010A94215D000270B46096886
:102170009A699E68C4F8F0104D609F6283F82470DD
:1021800012689068B042FBD25068A942C3E90020AF
:1021900003605360EAD1002383F31188BDE8F8405F
:1021A000FEF706B90004014008140020A81400201E
:1021B000B8140020C8140020D8140020E81400200F
:1021C000F8140020000000000000000000000000E3
:1021D00070B5302686F311881F4D2A46AB8B52F816
:1021E000104F01339BB29442AB8316D0A368013BDE
:1021F000A36093B9D4E900210A605160236083F39E
:1022000011882046D4E90331984786F31188636921
:1022100053B92C69A368002BECD0002383F31188F9
:10222000BDE87040FEF7C4B82A6991688B4204D9B2
:1022300012685B1A91689942FAD34FF0FF305168E7
:10224000A360616022600C6091685460C91A2C69B7
:102250009160A861A368CCE7801300200000000013
:102260001B4A136843F00103136013689807FCD5F9
:1022700000201368164903F0F903136050604B689F
:1022800013F00C0FFBD10B68114A43F480330B6041
:1022900013689903FCD553680D4943F4E813536060
:1022A000136843F0807313600B689B01FCD5122008
:1022B000084A094B4A6018604B68054A43F002031C
:1022C0004B60536803F00C03082BFAD1704700BF32
:1022D0000010024000641D000020024000000000C9
:1022E00010B401244FF0000C0C4B1868D968026838
:1022F000536080F824401A60D8608C688B6981F83C
:1023000024C01B689A68A242FBD85A6810BCC1E975
:10231000003211605960FDF793BF00BF80130020A9
:10232000302370B583F311881E4BD968CA6A01F156
:102330002C0C624518BF4FF0000E886213D191F843
:1023400026202AB30F224FF0010C186881F82420B0
:102350000268536080F824C0BDE870401A60D860FD
:10236000FDF76EBF2246146890699668CC6282F8C9
:1023700024E000688568B542FBD24568644510607A
:1023800055602A604260EDD191F82620002AD9D10B
:1023900091F825209207D5D1D1E904200260506040
:1023A000D0E700BF80130020000000000000000004
:1023B000EFF30983203383F30988002383F3118823
:1023C000704700BF00000000000000000000000097
:1023D0004FF0FF3300222DE98048C74989B00C69CE
:1023E0000B610D690A610D694FF48074CD68C34FAC
:1023F000CB60CB686020CA604FF040094FF0800886
:102400004FF4007E4FF4806C4FF40006CB683B46DF
:10241000CD69DFF8ECA245F08055CD61CD69CD697D
:1024200045F00065CD61C969DAF80050B54925432A
:10243000CAF8005081F80603C1F88091C1F80090F5
:1024400081F80703C1F88081C1F8008081F8080392
:10245000C1F880410C6081F80903C1F880E1C1F83E
:1024600000E081F80A03C1F880C1C1F800C081F81A
:102470001703C1F880610E6081F82803C1F8844118
:102480004C603919C3E90033C3E902221033994281
:10249000F8D14FF088334FF0FF314FF0E0204FF08C
:1024A000800848F69F4A4FF00709934CDFF858C25E
:1024B000A669DFF858B246F07D06A661A469944C7F
:1024C000944EE16063602360C4F80C14C4F80434D3
:1024D000C4F80034CCF80C10CCF804B0CCF80030C0
:1024E000DFF834C204F58064F1607360C6F800C0A0
:1024F000C4F80C1CC4F8043CC4F8003C874BC0F87A
:1025000014A08261C0F8109083F823800020CDE9E8
:10251000021200214FF0010E0425DFF80482CDE9FC
:102520000601059288F800E0C8F8082002A8FDF727
:10253000DFFEFDF7E5FE013DF8D11C200422142446
:10254000029B7849C8F80830774B302618637748E3
:10255000DA611862986376485A6308607548764A6B
:10256000486076499C611160754C7649C2E9015515
:10257000A16302F10C01C2E90311556103F11002DC
:102580001A6103F124025A6203F128029A6203F1EC
:102590003C02DA6303F140021A6403F14402C3E926
:1025A00000339D605D61DD62C8F8044025635A64B4
:1025B00086F3118862B64FF6FF0CC4E91D55574BE0
:1025C000A5606563D968604A01EA0C010A43646545
:1025D000E565DA60D3F8FC20DFF870C142F0807264
:1025E000C3F8FC200122DCF8001020201143CCF8B5
:1025F00000104FF0FF31D87783F82260A161544971
:10260000A583A16504F11001C4E9041104F16C0172
:10261000A38BC4E91B1104F16801A16604F13C011C
:10262000ADF80630E16080232946BDF8060004F1CC
:102630004C0B04F128096364E367C4F828B084F8FC
:102640006220A4F86020C4F85090C4E908014FF05B
:102650000201404B88F8001003F1C401C3F8F410E4
:102660003D49C3F8FCB0C3F8C4103C49DFF8F0B0F2
:1026700003F1F80A03F58C7E03F1E80CC3F80411AA
:1026800003F58A71C3E94855C3E946EEC3E93A4404
:10269000C4E900CCC4F88450C3F80831C3F814115D
:1026A000C3F8C850C3F8E4B0C3F8F020C3F8004141
:1026B000C3F8282183F80E21C3F8F890C4F84CA081
:1026C000C4F82CA0A3F80C5185F31188254B264A99
:1026D000C3E900339D60254B0B48C3E90033244B0D
:1026E0004FF40051C3E90033224BDFF8248013601C
:1026F000214A136042E000BF00100240081400208D
:102700000070004000E100E0001001408888388837
:1027100000080140001401404488888800ED00E072
:1027200070130020681300206C090020910300083A
:102730000815002000500020500900205103000817
:1027400080130020842A00080003FA05001000E02E
:10275000582A000820080020E1020008442A000846
:10276000510200080808002060130020180800200B
:102770000008002054130020A81200207E4B0622DF
:102780001D60FDF775FD4FF400530622436140F2D2
:10279000FF114046FDF76CFD03224FF4704108F530
:1027A0008060FDF765FD754BC8F8103086F3118821
:1027B0000C20FDF70DFF85F3118886F311880D209D
:1027C000FDF706FF85F3118886F311880E20FDF7CB
:1027D000FFFE85F3118886F311880F20FDF7F8FEC0
:1027E00085F3118886F31188654BC7F8CC50C7F87C
:1027F000C83085F3118886F31188624BC7F8DC5026
:10280000C7F8D83085F3118886F311885E4BC7F876
:10281000EC50C7F8E83085F3118886F311885B4BDC
:10282000C7F8FC50C7F8F83085F3118886F3118893
:1028300081224FF48071564BE66AC3F8B028C3F882
:10284000E828544A03F6B800C3F88428524A03F62D
:102850008407C3F8C42803F6D802A3F8CD18C3F838
:10286000BC68E168C3F8B898C3F8A4B8C3F8C8381E
:10287000C3F88858C3F8C048C3F8E458C3F8E05810
:10288000C3F8B4783060C3F8D828C3F8DC2803F65E
:10289000D402E062C3F8D428D3F8B0688868C3F8DB
:1028A000D058864257D98A6981F8245012689568B1
:1028B000A842FBD3012550680A6048600160374890
:1028C0005160E06083F8CC58FDF7BAFC002686F32F
:1028D00011884FF03009B0464FF0FF35304F89F383
:1028E0001188D4E9031398684FF47A72B0F57A7FAF
:1028F000CDE90571079604D21B68121A98689042B8
:10290000FAD34FF0080E4FF0010C58680DEB0E0A89
:102910000492CDE90230C0F800A09868C3F804A082
:10292000821A20689A6081F824E00368A5615C60DF
:1029300080F824C02360E060FDF782FC029B3BB17D
:10294000DDE903109A6802449A600B605960A56142
:1029500088F31188C3E7224683F8CC58126891683F
:102960008E42FBD95168C3F8A828C3F8AC180B4BAA
:102970000B605360AAE700BF641300200100FE0152
:10298000210A0008A10A0008210B0008810700089D
:10299000B8090020D11000084C2A0008601200205D
:1029A0002106000870B5860747D0541E002A3ED085
:1029B0000346CAB201E0013C39D303F8012B9D075D
:1029C000F9D1032C2CD9CDB205EB05250F2C1A46D5
:1029D00005EB054534D9A4F1100C2CF00F0603F1DA
:1029E000100EB6444FEA1C1CC2E90055C2E902555C
:1029F00010327245F8D10CF1010214F00C0F03EB08
:102A0000021204F00F0C13D0ACF1040323F0030303
:102A10000433134442F8045B9342FBD10CF00304EB
:102A20002CB1C9B21C4403F8011BA342FBD170BDF9
:102A300064461346002CF4D1F9E703461446C0E778
:042A4000A446E1E7E0
:102A440069646C65000000006E6F6E616D65000066
:102A5400633000006D61696E002C0438040248087C
:102A64000C10141C2024252600000000000024045F
:102A74000100040000000000000C001028303400A5
:102A8400542A000800000000000000002008002074
:102A94005009002004020408080003070808080875
:102AA400080808080B0F00004C2B0008081500202C
:102AB40008150020081500204C2B00080000000019
:102AC40000000000000000004C2B00080000000083
:102AD40000000000000000004C2B00080000000073
:102AE40000000000000000004C2B00080000000063
:102AF40000000000000000004C2B00080000000053
:102B040000000000000000004C2B00080000000042
:102B140000000000000000004C2B00080000000032
:082B24000000000000000000A9
:102B2C0000080020000800200808002008080020E9
:102B3C000000000000000000180800201808002009
:0400000508000239B4
:00000001FF
