:020000040800F2
:1000000000040020390200083B0200083B020008FF
:100010003B0200083B0200083B0200083B020008CC
:100020003B0200083B0200083B020008E11D0008FB
:100030003B0200083B0200083B0200088111000857
:100040003B0200083B0200083B0200083B0200089C
:100050003B0200083B020008310B0008A10B00081E
:10006000110C0008810C0008F10C00083B0200088C
:100070003B0200083B0200083B0200083B0200086C
:100080003B0200083B0200083B0200083B0200085C
:100090003B0200083B0200083B020008610D00081B
:1000A0003B0200083B0200083B0200083B0200083C
:1000B0003B0200083B0200083B0200083B0200082C
:1000C0003B0200083B0200083B0200083B0200081C
:1000D0003B0200083B0200083B0200083B0200080C
:1000E000310F00083B0200083B0200083B020008F9
:1000F0003B0200083B0200083B0200083B020008EC
:100100003B0200083B0200083B0200083B020008DB
:100110003B0200083B0200083B0200083B020008CB
:100120003B0200083B0200083B0200083B020008BB
:100130003B0200083B0200083B0200083B020008AB
:100140003B0200083B0200083B0200083B0200089B
:100150003B0200083B0200083B0200083B0200088B
:1001600072B6264880F30888254880F30988254818
:1001700025490860022080F31488BFF36F8F00F0D8
:100180008FFC01F045F84FF0553020491B4A914251
:100190003CBF41F8040BFAE71D49194A91423CBFA4
:1001A00041F8040BFAE71B491B4A1C4B9A423EBF1D
:1001B00051F8040B42F8040BF8E700201849194ADB
:1001C00091423CBF41F8040BFAE700F081FC00F0DB
:1001D0006FFC154C154DAC4203DA54F8041B8847EC
:1001E000F9E701F00DFE124C124DAC4203DA54F85F
:1001F000041B8847F9E700F063BC000000040020FE
:10020000000800200000000808ED00E000000020C9
:1002100000040020DC230008000800200008002063
:1002200000080020C01D00206001000860010008D7
:10023000600100086001000892E700F000F8FEE7A6
:100240002DE9F04FC1F80CD0C3689D46BDE8F08F92
:10025000002383F311882846A047002001F078FD91
:10026000FEE701F015F800DFFEE7000000000000E7
:10027000002330B5164D032AAD5C4FF008049C46B0
:100280001A469E4608BF016111F0800F4FEA021224
:100290004FEA03134FEA0C1C4FEA0E1E0CBF42F04C
:1002A0000F022B4311F4004F0CBF4EF00F0E4CEA1F
:1002B000050C013C4FEA4101E6D1416801EA0E011B
:1002C00041EA0C01416001680A401343036030BDFC
:1002D00048230008000000000000000000000000AB
:1002E000FEE700BF0000000000000000000000006A
:1002F000014B5B6883607047001000E00000000065
:100300000E4B0F4A5B68926881689B1A5B1A10B4A7
:10031000D0E90342D21841690261426841F100010B
:100320009342026804F1010488BF43609342C0E92C
:100330000234416110BC38BF03607047001000E018
:10034000281C002000000000000000000000000049
:10035000302310B483F311880B4B49425C68201A98
:1003600008401968821A8A4207D3944205D35A601A
:10037000002383F3118810BC70470020002383F30F
:10038000118810BC704700BF201C00200000000036
:10039000064B49425A68101A08401968884203D32C
:1003A000824201D35860704700207047201C002013
:1003B000302383F311880D4B5B6813F4006302D183
:1003C00083F311887047EFF309834FF08072203B6D
:1003D000DA6183F30988064A1168D26889689268ED
:1003E00091428CBF034A044A9A61704700ED00E0D5
:1003F000381C0020630200086602000800000000AC
:100400004FF00F0C012230B40F4D00F003016C6966
:1004100089000CFA01FC24EA0C0402FA01F10B4BEE
:100420000C436C61996802FA00F021EA00019960BE
:10043000DA6830BC0243DA601A6802431A605A680C
:1004400022EA00025A6070470000014000040140A7
:100450000238F0B4032800F2C580DFE800F0094458
:100460006D027E4D2B78002B40F08F80F0BC7047E2
:100470007B4D2B78002BF9D07A4A3023126883F316
:100480001188794C2368002B00F0A48000264FF0DF
:10049000FF37A068996801449960744861680B60EF
:1004A000596026608761002671490369E160996897
:1004B000C4E904668A4204D91B68521A99689142B9
:1004C000FAD34FF0FF36A26099682360891A5A6800
:1004D00062601460C3E901410023866183F31188DF
:1004E0002B70F0BC7047634D2B78002BBED0624A56
:1004F0003023126883F31188604C2368002B6DD081
:1005000000264FF0FF37A06899680144996057486A
:1005100061680B605960266087610026584903694D
:10052000E1609968C4E904668A42CAD91B68521A14
:1005300099689142FAD3C4E7524D2B78002B95D09D
:10054000514A3023126883F31188504C2368002BE2
:1005500042D000264FF0FF37A068996801449960A7
:10056000424861680B6059602660876100264849EF
:100570000369E1609968C4E904668A42A1D91B68ED
:10058000521A99689142FAD39BE7424A3023126883
:1005900083F31188404C236813B300264FF0FF37D4
:1005A000A068996801449960304861680B6059609F
:1005B00026608761002639490369E1609968C4E9CA
:1005C00004668A427FF67DAF1B68521A9968914291
:1005D000FAD376E7254866E72448C7E723489CE72F
:1005E0002248E7E72E4D2B78002B3FF43FAF2D4AF2
:1005F0003023116883F311882B4B1A68002A2BD003
:1006000000244FF0FF3690689F6838449060586827
:100610000260506015481C6086610026234C026908
:10062000DC609468C3E90466A14204D91268091B1E
:1006300094688C42FAD34FF0FF36996094681A6040
:10064000641A516859600B60C2E901340023866165
:1006500083F311882B7009E70448DEE7981B00201C
:10066000F81B0020F41B0020DC1B0020381C00209D
:1006700051070008D81B0020D41B0020BC1B002001
:1006800071070008B81B0020B41B00209C1B002031
:1006900091070008941B00207C1B0020B107000874
:1006A000181C0020141C0020FC1B0020310700082F
:1006B000F0B41B4C2368A3422BD0002505E0BCF10D
:1006C0000B0F28D01B68A34223D0D3E90321024398
:1006D0000842DA60F6D0D3E90121966B92F824C083
:1006E0003143BCF10A0F9163E9D1966A3142E9D0F6
:1006F00091699768956282F8245009688E68BE42B5
:10070000FBD21B684E68A342C2E9001632604A6001
:10071000DBD1F0BC7047966A36EA0101D2D1E7E737
:100720001C1C002000000000000000000000000071
:1007300008B5302383F311882020FFF7B9FF002389
:1007400083F3118808BD00BF000000000000000016
:1007500008B5302383F311884020FFF7A9FF002359
:1007600083F3118808BD00BF0000000000000000F6
:1007700008B5302383F311888020FFF799FF002309
:1007800083F3118808BD00BF0000000000000000D6
:1007900008B5302383F311884FF48070FFF788FF8A
:1007A000002383F3118808BD000000000000000052
:1007B00008B5302383F311884FF40070FFF778FFFA
:1007C000002383F3118808BD000000000000000032
:1007D00008B5302383F311880120FFF769FF002358
:1007E00083F3118808BD00BF000000000000000076
:1007F00008B5302383F311880220FFF759FF002347
:1008000083F3118808BD00BF000000000000000055
:1008100008B5302383F311880420FFF749FF002334
:1008200083F3118808BD00BF000000000000000035
:10083000302310B583F311880A4C237843B110207C
:10084000FFF736FF00232370002383F3118810BDC8
:100850000820FFF72DFF01232370002383F3118865
:1008600010BD00BF191C00200000000000000000A7
:1008700080B5302386B083F311884FF48060002167
:100880004FF0FF323C4B3D4DCDE902011968C3F8F2
:1008900000D0EB68049200910022019382F311884A
:1008A000DFF8DC80DFF8DC90374E384F3023EC681F
:1008B00083F31188A36B5A0541D56FF4806213400E
:1008C000A363002282F3118898F800300C2B4DD8D6
:1008D000DFE803F007312D2925211D1915110D0A17
:1008E0000700C9F81060E1E7C9F81070DEE7284B8F
:1008F000C9F81030DAE7274BC9F81030D6E7264B95
:10090000C9F81030D2E7254BC9F81030CEE7244B98
:10091000C9F81030CAE7234BC9F81030C6E7224B9C
:10092000C9F81030C2E7214BC9F81030BEE7204BA0
:10093000C9F81030BAE71F4BC9F81030B6E74FF4CA
:10094000806C0A230122E9682868C4F828C081F86D
:10095000243003685D6080F824202B60E860FFF796
:100960006FFCA36B03F48062D243A8E740F2FF124E
:10097000044B1A619AE700BF1C1C0020381C0020A1
:10098000791B0020000801400100FE0191006E016A
:100990004900B6010901F600890076012900D60157
:1009A0004500BA010501FA0085007A010301FC0047
:1009B00083007C012300DC01000000000000000037
:1009C000F8B53022034682F31188C3F884184FF437
:1009D0008071812500242F4A2F48D76AA3F8CD18AB
:1009E0002E49C3F8B05803F6B806C3F8A408C3F8F4
:1009F000E85803F6840003F6D80502F1280CC3F882
:100A0000B408C3F8BC78C3F8C418C3F8B8C8D16830
:100A1000C3F8C838C3F8C028C3F88848C3F8E44806
:100A2000C3F8E0483E60C3F8D858C3F8DC5803F672
:100A3000D405D662C3F8D458D3F8B0688D6803F6ED
:100A4000A800AE42C3F8D04815D981F824408C697B
:100A50002468A668B542FBD3012665680C604D602A
:100A60002960616083F8CC68D060FFF7E9FB002360
:100A700083F31188F8BD83F8CC48126891688E42E0
:100A8000FBD95168C3F8A828C3F8AC1808605060B7
:100A9000EDE700BF381C002051020008F4220008D6
:100AA000704700BF000000000000000000000000D0
:100AB000704700BF000000000000000000000000C0
:100AC000FEE700BF00000000000000000000000082
:100AD00070B5134D05F1800455E90301884255F8BE
:100AE000102C0DD20346043A52F8046F43F8046BFD
:100AF0008B42F9D34B1E1B1A23F003030433184413
:100B000055F8042C824207D9013A121A22F0030246
:100B10000021043201F09EFB1035A542DCD170BDEE
:100B20006C2300080000000000000000000000002E
:100B3000184A516913680B4003F0010353613BB33A
:100B400070B5154CA3680BB1E0689847302383F368
:100B500011882168A14214D000260B4609689A69C1
:100B60009D684C6021609E6283F8246012689068E2
:100B7000A842FBD25068A142C3E900200360536041
:100B8000EBD1002383F31188BDE87040FFF710BC60
:100B9000FFF70EBC00040140C01C00200000000054
:100BA000184AF8B5516913680B4003F0020353610A
:100BB0001BB3154FBB690BB1F8699847302383F31A
:100BC0001188124C3969A14214D000260B460968DD
:100BD0009A699D6839614C609E6283F8246012684E
:100BE0009068A842FBD25068A142C3E9002003608C
:100BF0005360EBD1002383F31188BDE8F840FFF781
:100C0000D7BB00BF00040140C01C0020D01C002046
:100C1000184AF8B5516913680B4003F00403536197
:100C20001BB3154FBB6A0BB1F86A9847302383F3A7
:100C30001188124C396AA14214D000260B4609686B
:100C40009A699D6839624C609E6283F824601268DC
:100C50009068A842FBD25068A142C3E9002003601B
:100C60005360EBD1002383F31188BDE8F840FFF710
:100C70009FBB00BF00040140C01C0020E01C0020FE
:100C8000184AF8B5516913680B4003F00803536123
:100C90001BB3154FBB6B0BB1F86B9847302383F335
:100CA0001188124C396BA14214D000260B460968FA
:100CB0009A699D6839634C609E6283F8246012686B
:100CC0009068A842FBD25068A142C3E900200360AB
:100CD0005360EBD1002383F31188BDE8F840FFF7A0
:100CE00067BB00BF00040140C01C0020F01C0020B6
:100CF000184AF8B5516913680B4003F010035361AB
:100D00001BB3154FBB6C0BB1F86C9847302383F3C2
:100D10001188124C396CA14214D000260B46096888
:100D20009A699D6839644C609E6283F824601268F9
:100D30009068A842FBD25068A142C3E9002003603A
:100D40005360EBD1002383F31188BDE8F840FFF72F
:100D50002FBB00BF00040140C01C0020001D00206C
:100D6000F8B56C4B5A691D68154005F47872AC06ED
:100D70005A6125D5684CA36D0BB1E06D98473023BF
:100D800083F31188654E216DB14216D04FF0000CEF
:100D90000B4609689A699F6821654E60C3F828C0B0
:100DA00083F824C012689068B842FBD25068B14200
:100DB000C3E9002003605360EAD1002383F3118864
:100DC000680625D5544CA36E0BB1E06E98473023CE
:100DD00083F31188524E216EB14216D04FF0000CB1
:100DE0000B4609689A699F6821664E60C3F828C05F
:100DF00083F824C012689068B842FBD25068B142B0
:100E0000C3E9002003605360EAD1002383F3118813
:100E1000290625D5404CA36F0BB1E06F98473023CE
:100E200083F311883F4E216FB14216D04FF0000C72
:100E30000B4609689A699F6821674E60C3F828C00D
:100E400083F824C012689068B842FBD25068B1425F
:100E5000C3E9002003605360EAD1002383F31188C3
:100E6000EA0529D52C4CD4F8883013B1D4F88C007D
:100E70009847302383F311882B4ED4F88010B14269
:100E800017D04FF0000C0B4609689A699F68C4F8A8
:100E900080104E60C3F828C083F824C012689068A0
:100EA000B842FBD25068B142C3E9002003605360EE
:100EB000E9D1002383F31188AB0527D5164CD4F86C
:100EC000983013B1D4F89C009847302383F31188ED
:100ED000164DD4F89010A94215D000270B4609688A
:100EE0009A699E68C4F890104D609F6283F82470E0
:100EF00012689068B042FBD25068A942C3E9002052
:100F000003605360EAD1002383F31188BDE8F84001
:100F1000FFF74EBA00040140C01C0020101D002045
:100F2000201D0020301D0020401D0020501D0020ED
:100F3000F8B5884B5A691D68154005F47C426E056A
:100F40005A6129D5844CD4F8A83013B1D4F8AC0038
:100F50009847302383F31188804ED4F8A010B14213
:100F600017D04FF0000C0B4609689A699F68C4F8C7
:100F7000A0104E60C3F828C083F824C0126890689F
:100F8000B842FBD25068B142C3E90020036053600D
:100F9000E9D1002383F311882C0529D56E4CD4F8B0
:100FA000B83013B1D4F8BC009847302383F31188CC
:100FB0006B4ED4F8B010B14217D04FF0000C0B4676
:100FC00009689A699F68C4F8B0104E60C3F828C0D9
:100FD00083F824C012689068B842FBD25068B142CE
:100FE000C3E9002003605360E9D1002383F3118833
:100FF000E80429D5584CD4F8C83013B1D4F8CC0043
:101000009847302383F31188564ED4F8C010B1426C
:1010100017D04FF0000C0B4609689A699F68C4F816
:10102000C0104E60C3F828C083F824C012689068CE
:10103000B842FBD25068B142C3E90020036053605C
:10104000E9D1002383F31188A90429D5424CD4F8AF
:10105000D83013B1D4F8DC009847302383F31188DB
:10106000414ED4F8D010B14217D04FF0000C0B46CF
:1010700009689A699F68C4F8D0104E60C3F828C008
:1010800083F824C012689068B842FBD25068B1421D
:10109000C3E9002003605360E9D1002383F3118882
:1010A0006A0429D52C4CD4F8E83013B1D4F8EC00FC
:1010B0009847302383F311882C4ED4F8E010B142C6
:1010C00017D04FF0000C0B4609689A699F68C4F866
:1010D000E0104E60C3F828C083F824C012689068FE
:1010E000B842FBD25068B142C3E9002003605360AC
:1010F000E9D1002383F311882B0427D5164CD4F8AB
:10110000F83013B1D4F8FC009847302383F31188EA
:10111000174DD4F8F010A94215D000270B460968E6
:101120009A699E68C4F8F0104D609F6283F824703D
:1011300012689068B042FBD25068A942C3E900200F
:1011400003605360EAD1002383F31188BDE8F840BF
:10115000FFF72EB900040140C01C0020601D0020D4
:10116000701D0020801D0020901D0020A01D00206B
:10117000B01D002000000000000000000000000082
:1011800070B5302686F311881F4D2A46AB8B52F876
:10119000104F01339BB29442AB8316D0A368013B3E
:1011A000A36093B9D4E900210A605160236083F3FE
:1011B00011882046D4E90331984786F31188636982
:1011C00053B92C69A368002BECD0002383F311885A
:1011D000BDE87040FFF7ECB82A6991688B4204D9EA
:1011E00012685B1A91689942FAD34FF0FF30516848
:1011F000A360616022600C6091685460C91A2C6918
:101200009160A861A368CCE7381C002000000000B2
:101210001B4A136843F00103136013689807FCD559
:1012200000201368164903F0F903136050604B68FF
:1012300013F00C0FFBD10B68114A43F480330B60A1
:1012400013689903FCD553680D4943F4E8135360C0
:10125000136843F0807313600B689B01FCD5122068
:10126000084A094B4A6018604B68054A43F002037C
:101270004B60536803F00C03082BFAD1704700BF92
:101280000010024000641D00002002400000000029
:1012900010B401244FF0000C0C4B1868D968026898
:1012A000536080F824401A60D8608C688B6981F89C
:1012B00024C01B689A68A242FBD85A6810BCC1E9D6
:1012C000003211605960FEF7BBBF00BF381C002020
:1012D0002DE98048302589B085F311884FF0FF3221
:1012E000012000219C4B06921A689C4C029202AA93
:1012F0001A60E3684FF00009CDE90401039389F314
:101300001188DFF85C824E46DFF858B2DFF858A249
:10131000964F17E098F8003023B98BF8003001237E
:1013200088F8003085F311884FF48060FFF7C0F92A
:1013300023689A68E3689B689A4201D9FFF7A8FF7F
:1013400086F31188E26885F31188936B002B00F017
:101350008280C2F8389086F3118813F00102D9D147
:1013600013F0020100F08D8098F80030012B00F09E
:101370009182072BD6D18BF80030082388F80030F3
:1013800085F31188DFF8E8C1DCF800306BB14FF06D
:10139000FF309968DCF808E071449960DCF80410CB
:1013A0000B605960CCF80020A061714B714AC3F802
:1013B0001090DA60C3F8149023696F4A99689142DB
:1013C00000F2B38301321B68521A99689142FAD332
:1013D0004FF0FF30DFF898C1CCF808209968CCF8BE
:1013E0000030891A5A68CCF80420C2F800C0C3E95A
:1013F00001C1A06186F3118885F311883B684BB168
:101400009A68B9680A449A607A6813605A60C7F8A3
:101410000090A061594B4FF47A72FB602369C7F8C2
:1014200010909968C7F81490B1F57A7F04D21B68C0
:10143000521A99689142FAD34FF0FF30BA60996816
:101440003B60891A5A687A601760C3E90171A0612C
:1014500086F3118866E74FF0FF3393620A234FF05B
:10146000010CE168206881F82430036801925C6017
:1014700080F824C02360E060FEF7E2FE019A936BDF
:1014800067E758074AD598F80030062B00F06282CB
:101490000A2B7FF447AF8BF800300B2388F800301D
:1014A00085F31188DFF8D8C0DCF800306BB14FF05D
:1014B000FF309A68DCF808E072449A60DCF8042097
:1014C00013605A60CCF80010A0612D4B2D4AC3F870
:1014D0001090DA6049F63F42C3F814902369996886
:1014E000914249F6404204D81B68521A99689142C9
:1014F000FAD34FF0FF30DFF888C0CCF808209968A5
:10150000CCF80030891A5A68CCF80420C2F800C020
:10151000C3E901C1A06186F3118803E713F020023B
:1015200000F0428198F80030023B072B3FF6FAAEFC
:1015300001A252F823F000BF4F1600084F17000811
:10154000A3160008F9160008251300082513000843
:10155000FB150008891500081C1C0020381C002001
:10156000791B0020781B0020DC1B0020FC1B0020C6
:101570009C1B002091070008BFD401003107000820
:101580007C1B0020B107000809238BF800300823DA
:1015900088F80030302383F311883B6863B1002062
:1015A0004FF0FF319A68D7F808C062449A607A68B1
:1015B00013605A603860A16100227A4BFB60236996
:1015C0009968C7E90422B1F57A7F4FF47A7204D2A0
:1015D0001B68521A99689142FAD34FF0FF30BA60F3
:1015E00099683B60891A5A687A601760C3E901718B
:1015F0000023A06183F3118894E608238BF8003060
:10160000092388F80030302383F311883B6863B1E5
:1016100000204FF0FF319A68D7F808C062449A6002
:101620007A6813605A603860A16100225D4BFB60EC
:1016300023699968C7E90422B1F57A7F4FF47A7279
:10164000CBD21B68521A99689142FAD3C5E702239C
:101650008BF80030032388F80030302383F311889F
:101660003B6863B100204FF0FF319A68D7F808C09B
:1016700062449A607A6813605A603860A1610022FF
:10168000484BFB6023699968C7E90422B1F57A7F6A
:101690004FF47A72A1D21B68521A99689142FAD318
:1016A0009BE704238BF80030052388F800303023B3
:1016B00083F311883B6863B100204FF0FF319A68D3
:1016C000D7F808C062449A607A6813605A6038603C
:1016D000A1610022334BFB6023699968C7E90422AA
:1016E000B1F57A7F4FF47A72BFF477AF1B68521A64
:1016F00099689142FAD370E705238BF800300423F0
:1017000088F80030302383F311883B6863B10020F0
:101710004FF0FF319A68D7F808C062449A607A683F
:1017200013605A603860A16100221E4BFB60236980
:101730009968C7E90422B1F57A7F4FF47A72BFF451
:101740004CAF1B68521A99689142FAD345E70323BC
:101750008BF80030022388F80030302383F311889F
:101760003B6863B100204FF0FF319A68D7F808C09A
:1017700062449A607A6813605A603860A1610022FE
:10178000084BFB6023699968C7E90422B1F57A7FA9
:101790004FF47A72BFF421AF1B68521A99689142D4
:1017A000FAD31AE731070008590640F1D98098F8B2
:1017B0000030022B00F00081032B7FF4B3AD8BF8D7
:1017C0000030042388F80030302383F31188DFF8D9
:1017D000B4C2DCF800306BB14FF0FF309968DCF830
:1017E00008E071449960DCF804100B605960CCF893
:1017F0000020A0610022DFF88CC2A34BA348CCF8E4
:101800000C3023699968CCE904228142A04A04D8AB
:101810001B68521A99689142FAD34FF0FF30DFF8F3
:1018200064C2CCF808209968CCF80030891A5A684C
:10183000CCF80420C2F800C0C3E901C10021A061B6
:1018400081F31188302383F311883B684BB19A6888
:10185000D7F808C062449A607A6813605A603960A9
:10186000A06100228B4BFB6023699968C7E90422C1
:10187000B1F57A7F4FF47A72BFF4AFAE1B68521A9B
:1018800099689142BFF4A9AE1B68521A99689142B7
:10189000F4D3A2E68BF80030022388F8003085F3F9
:1018A0001188DAF800306BB14FF0FF309968DAF840
:1018B00008C061449960DAF804100B605960CAF8F6
:1018C0000020A06144F61F62734BCAF81090CAF85A
:1018D0000C302369CAF814909968914244F620624A
:1018E00004D81B68521A99689142FAD34FF0FF301E
:1018F000CAF808209968CAF80030891A5A68CAF8E4
:101900000420C2F800A0C3E901A1A06186F31188F8
:1019100085F311883B684BB19A68B9680A449A60AC
:101920007A6813605A60C7F80090A061594B4FF471
:101930007A72FB602369C7F810909968C7F8149011
:10194000B1F57A7FBFF478AD1B68521A996891425D
:10195000FAD371E58BF80030072388F80030E1E412
:1019600018060CD598F80030042B02D0052B7FF414
:10197000D9AC8BF80030062388F80030D2E413F499
:1019800080710CD098F80030082B02D0092B7FF41E
:10199000C9AC8BF800300A2388F80030C2E413F495
:1019A00000727BD098F800300B2B7FF4BBAC8BF827
:1019B000003088F80010B5E48BF80030042388F874
:1019C0000030302383F31188DFF8B8C0DCF8003032
:1019D0006BB14FF0FF309968DCF808E07144996012
:1019E000DCF804100B605960CCF80020A0610022E4
:1019F000DFF890C0244B2548CCF80C302369996857
:101A0000CCE904228142224A04D81B68521A996800
:101A10009142FAD34FF0FF30DFF868C0CCF80820CD
:101A20009968CCF80030891A5A68CCF80420C2F8BA
:101A300000C0C3E901C10021A06181F311883023F6
:101A400083F311883B684BB19A68D7F808C06244A9
:101A50009A607A6813605A603960A06100220D4B69
:101A6000FB6023699968C7E90422B1F57A7F4FF4D6
:101A70007A72BFF4B2AD1B68521A99689142FAD3D8
:101A8000ABE500BFBC1B002071070008FF7601001A
:101A9000007701003107000851070008190746D5F3
:101AA0000C2198F8003088F80010991E01298BF855
:101AB00000305FD9191F012940F2B780083B012B84
:101AC0003FF630AC964B197801F0FF03002900F087
:101AD000C580944B1B78002B7FF424AC236904E071
:101AE0001B6891498B4200F0B6809968BB420A445A
:101AF000F6D18E4B1A60302383F311883B6863B1B3
:101B000000204FF0FF319A68D7F808C062449A600D
:101B10007A6813605A603860A161002383F31188EA
:101B20000123804A1370FFF7FDBB814A50E4DB06B6
:101B30007FF5F8AB9BF8003088F80030023B092BAA
:101B40003FF6F0AB01A252F823F000BFBF1B000824
:101B5000BF1B0008AF1B0008AF1B000825130008BF
:101B6000251300089F1B00089F1B00082513000871
:101B7000211C00086F4B197801F0FF0339B3694B42
:101B80001B78002B7FF4CEAB236903E01B6866490A
:101B90008B4260D09968BB420A44F7D1A9E7042080
:101BA000FEF756FC0120FEF753FCFFF7BBBB0320FA
:101BB000FEF74EFC0120FEF74BFCFFF7B3BB022003
:101BC000FEF746FC0120FEF743FCFFF7ABBB2169A3
:101BD00003E00968544881426CD088685145034449
:101BE000F7D155490B60302383F31188DAF80030C0
:101BF0007BB14FF0000E4FF0FF309968DAF808C063
:101C000061449960DAF804100B605960CAF800E08A
:101C1000A061002383F31188012346490B70AEE7CE
:101C20000520FEF715FCFFF77DBB444B197801F04A
:101C3000FF03002941D03B4B1B78002B7FF472AB94
:101C4000236903E01B6838498B4204D09968BB4282
:101C50000A44F7D14DE74FF0FF324AE7216903E02C
:101C600009683148814257D088680344344881422A
:101C7000F6D134490B60302383F31188DFF8C0C0FC
:101C8000DCF800307BB19868DCF808104FF0000EEB
:101C90000844DCF8041098600B6059604FF0FF3383
:101CA000CCF800E0A361002383F3118801231C49D1
:101CB0000B700EE74FF0FF3393E7216903E00968EB
:101CC0001948814225D0886803441F488142F6D1D3
:101CD0001E490B60302383F31188DFF86CC0DCF8F9
:101CE00000307BB19868DCF808104FF0000E084413
:101CF000DCF8041098600B6059604FF0FF33CCF8AB
:101D000000E0A361002383F3118801230B490B70CA
:101D100091E74FF0FF33DBE74FF0FF33A9E700BF58
:101D2000B81B0020181C0020481C0020141C002098
:101D3000C0D40100F81B0020F41B0020D81B002099
:101D40009C1B0020B41B0020BC1B0020D41B0020C7
:101D5000302370B583F311881E4BD968CA6A01F12C
:101D60002C0C624518BF4FF0000E886213D191F819
:101D700026202AB30F224FF0010C186881F8242086
:101D80000268536080F824C0BDE870401A60D860D3
:101D9000FEF756BA2246146890699668CC6282F8BB
:101DA00024E000688568B542FBD245686445106050
:101DB00055602A604260EDD191F82620002AD9D1E1
:101DC00091F825209207D5D1D1E904200260506016
:101DD000D0E700BF381C0020000000000000000019
:101DE000EFF30983203383F30988002383F31188F9
:101DF000704700BF0000000000000000000000006D
:101E00004FF0FF3300222DE98048C84989B00C69A2
:101E10000B610E690A610E694FF48074CE68C44D7F
:101E2000CB60CB686020CA604FF040094FF080085B
:101E30004FF4007E4FF4806C4FF40007CB682B46C4
:101E4000CE69DFF8F0A246F08056CE61CE69CE6949
:101E500046F00066CE61C969DAF80060B6492643EB
:101E6000CAF8006081F80603C1F88091C1F80090BB
:101E700081F80703C1F88081C1F8008081F8080368
:101E8000C1F880410C6081F80903C1F880E1C1F814
:101E900000E081F80A03C1F880C1C1F800C081F8F0
:101EA0001703C1F880710F6081F82803C1F88441DD
:101EB0004C602919C3E90033C3E902221033994267
:101EC000F8D14FF088334FF0FF314FF0E02048F663
:101ED0009F4A4FF007094FF08008944EDFF85CC22C
:101EE000B769DFF85CB247F07D07B761B669954E18
:101EF000954FF16073603360C6F80C14C6F8043473
:101F0000C6F80034CCF80C10CCF804B0CCF8003093
:101F1000DFF838C206F58066F9607B60C7F800C05C
:101F2000C6F80C1CC6F8043CC6F8003C884BC0F848
:101F300014A08261C0F8109083F823800020CDE9BE
:101F4000021200214FF0010E0424824FCDE9060158
:101F5000059287F800E0BA6002A8FEF7C9F9FEF71B
:101F6000CFF9013CF8D1029A7B4BBA607B4A14212D
:101F70001A607B4A30265A607A4B7B4A5C61C3E91F
:101F8000002403F10C02C3E902421A610423774AD8
:101F9000C2E906131C21536302F13C03D3631163AE
:101FA00002F140037249136402F144035364116265
:101FB000704B91637049C2E90022996302F11001EC
:101FC000116102F12401516202F12801946054610F
:101FD000D4627B601C63916286F3118862B64FF60F
:101FE000FF0CC3E91D445A4A9C605C63D068634996
:101FF00000EA0C004FF0010C01435B65DC65D16029
:10200000D2F8FC105E4841F08071C2F8FC10016803
:102010004FF0200E41EA0C0101604FF0FF3182F8D1
:102020001FE082F82260996156499C83996503F10B
:102030001001C3E9041103F16C019A8BC3E91B1170
:1020400003F16801996603F13C01ADF80620D960FF
:1020500080222146BDF8060003F1280B03F14C0A4B
:102060005A64DA6783F862C0A3F860C0C3F850B05E
:10207000C3F828A0C3E908014FF00201424A3970B1
:1020800002F1C401C2F8F410404902F1F809C2F8A3
:10209000C4103F4902F58C78C2F8E4103D4902F1C2
:1020A000E80EC2F8041102F58A71C2E93EBAC2E92B
:1020B0004844C2E94688C2E93A33C3E900EEC3F8AE
:1020C0008440C2F80821C2F81411C2F8C840C2F80E
:1020D000F0C0C2F80031C2F828C182F80EC1C3F8BE
:1020E0004C90C3F82C90A2F80C4184F31188154F42
:1020F0000622384640F2FF11FEF7BAF803224FF4E9
:10210000704107F58060FEF7B3F8234B3B6186F31F
:1021100011880C20FEF774F984F3118886F3118876
:102120000D20FEF76DF984F3118837E000100240AE
:10213000C01C00200070004000E100E000100140E1
:102140008888388800080140001401404488888845
:1021500000ED00E0281C0020201C0020C01D0020F5
:102160000050002030090020510300084C090020D5
:1021700091030008381C0020342300080003FA05EE
:10218000001000E00823000800080020E102000819
:1021900051020008FC2200080000FF0186F31188AC
:1021A0000E20FEF72DF984F3118886F311880F2095
:1021B000FEF726F984F3118886F31188174BC5E9D9
:1021C000323484F3118886F31188154BC5E936340F
:1021D00084F3118886F31188124BC5E93A3484F3ED
:1021E000118886F31188104BC5E93E3484F31188B9
:1021F0000E4A0F4B0F48104914601C600F4A104BD9
:1022000004600C600F48104914601B60FEF7D8FB97
:102210000E490F48FEF7D4FBFEE700BFD1070008C8
:10222000F10700081108000831080008FC1B002015
:10223000DC1B0020BC1B00209C1B00207C1B002002
:102240001C1C002088120020D11200087108000810
:102250009809002070B5860747D0541E002A3ED04A
:102260000346CAB201E0013C39D303F8012B9D07B4
:10227000F9D1032C2CD9CDB205EB05250F2C1A462C
:1022800005EB054534D9A4F1100C2CF00F0603F131
:10229000100EB6444FEA1C1CC2E90055C2E90255B3
:1022A00010327245F8D10CF1010214F00C0F03EB5F
:1022B000021204F00F0C13D0ACF1040323F003035B
:1022C0000433134442F8045B9342FBD10CF0030443
:1022D0002CB1C9B21C4403F8011BA342FBD170BD51
:1022E00064461346002CF4D1F9E703461446C0E7D0
:0422F000A446E1E738
:1022F4006E6F6E616D65000069646C6500000000BE
:10230400633000006D61696E002C043804024808D3
:102314000C10141C202425260000000000002404B6
:102324000100040000000000000C001028303400FC
:102334000423000800000000000000000008002042
:1023440030090020040204080800030708080808EC
:10235400080808080B0F0000DC230008C01D00203B
:10236400C01D0020C01D0020DC2300080000000068
:102374000000000000000000DC2300080000000052
:102384000000000000000000DC2300080000000042
:102394000000000000000000DC2300080000000032
:1023A4000000000000000000DC2300080000000022
:1023B4000000000000000000DC2300080000000012
:1023C4000000000000000000DC2300080000000002
:0823D400000000000000000001
:0400000508000239B4
:00000001FF
