:100000000C9434000C9451000C9451000C94510049
:100010000C9451000C9451000C9451000C9451001C
:100020000C9451000C9451000C9451000C94390123
:100030000C9451000C9451000C9451000C945100FC
:100040000C9451000C9451000C94AB000C94FB00E8
:100050000C9451000C9451000C9451000C945100DC
:100060000C9451000C94510011241FBECFEFD8E026
:10007000DEBFCDBF11E0A0E0B1E0EEEDF6E002C0E2
:1000800005900D92AC37B107D9F723E0ACE7B1E0AA
:1000900001C01D92AA30B207E1F70E9481020C94C0
:1000A0006D030C940000FC01E05CFF4F1082319660
:1000B0001082319610820895FC01EE5BFF4F81E0C3
:1000C0009081903409F080E00895FC01EE5BFF4FD1
:1000D00081E09081911180E00895CF93DF93FC013E
:1000E000EE5BFF4F4081403411F480E011C0DC0131
:1000F000A05CBF4F2C9130E0EC01C20FD31F68838E
:100100002F5F3F4F2F7333272C934F5F408381E046
:10011000DF91CF910895CF93DF93FC01EE5BFF4F0A
:1001200020812223A1F0DC01AF5BBF4F2C91EC01B9
:10013000C20FD11D8881EB0188838C9190E00196DC
:100140008F7399278C9380818150808321E0822F47
:10015000DF91CF9108951F920F920FB60F92112445
:100160002F933F934F935F936F937F938F939F93BF
:10017000AF93BF93EF93FF936091C6006D3721F467
:1001800081E08093820126C0613141F48091820137
:1001900081110DC081E0809383011CC0633191F413
:1001A00080918201811103C01092830113C080915C
:1001B0008201813011F41092820184E892E00E9461
:1001C0006D0008C06E37C9F7809182018111EFCFB1
:1001D0006EE7F3CFFF91EF91BF91AF919F918F9118
:1001E0007F916F915F914F913F912F910F900FBE33
:1001F0000F901F9018951F920F920FB60F92112417
:100200002F933F934F935F936F937F938F939F931E
:10021000AF93BF93EF93FF93CF93DF931F92CDB72D
:10022000DEB780910903811106C08091C1008F7DE6
:100230008093C1000AC0BE016F5F7F4F87EC92E0E0
:100240000E948B0089818093C6000F90DF91CF912F
:10025000FF91EF91BF91AF919F918F917F916F919E
:100260005F914F913F912F910F900FBE0F901F9074
:1002700018951F920F920FB60F9211248F939F9390
:10028000AF93BF9380917E0190917F01A0918001F7
:10029000B09181010196A11DB11D80937E019093C3
:1002A0007F01A0938001B0938101BF91AF919F9195
:1002B0008F910F900FBE0F901F9018959091830112
:1002C00081E0911101C080E008959091090390347C
:1002D00009F4FFCF682F87EC92E00E946D008091B7
:1002E000C10080628093C1000895DF92EF92FF9277
:1002F0000F931F93CF93DF937C01D62FD42E10E062
:100300001D1779F10E945E01882399F100917D010A
:10031000802F90E0F70101900020E9F73197EE1966
:10032000FF09E817F90730F0F701E80FF91FC0815E
:10033000C11104C010927D01D12F13C08C2F8D7F6D
:10034000813121F083E88C0F823018F48DE70E9410
:1003500065018C2F0E9465011F5F0F5F00937D0177
:10036000CFCFDD2029F08EE70E94650110927D013C
:100370008D2FDF91CF911F910F91FF90EF90DF9024
:10038000089583E10E94650110920001089581E1C2
:100390000E94650181E0809300010895CF93DF936F
:1003A0001F92CDB7DEB78091C602811101C0FFCF89
:1003B000BE016F5F7F4F84E892E00E948B008981CD
:1003C0000F90DF91CF910895FF920F931F93CF93DA
:1003D000DF938C01D62FC62FFD2EFC1ACC2331F0D3
:1003E0000E94CE0190910001911102C0C0E027C08F
:1003F00090917C018E3741F4F801E90FF11D1082D4
:1004000010927C01CF2D1BC0292F30E0F801019004
:100410000020E9F73197E01BF10B4FEF4C0FD801AB
:10042000A20FB31FE217F30720F41C9210927C0175
:1004300006C08C939F5F90937C01C42FCDCF8C2FEF
:10044000DF91CF911F910F91FF9008955198509A8D
:100450001092C00082E08093C50085EC8093C400B8
:10046000E1ECF0E088EF808380818B7F808386E001
:100470008093C2001092C4021092C5021092C6026C
:100480001092070310920803109209030895E1E8FF
:10049000F0E0808188608083AFE6B0E08C9182607C
:1004A0008C9380818360808389EF90E090938900B2
:1004B000809388000895CF92DF92EF92FF920F937E
:1004C0001F9300917E0110917F0120918001309156
:1004D0008101C0907E01D0907F01E0908001F0907A
:1004E0008101C01AD10AE20AF30AC616D706E80645
:1004F000F90678F31F910F91FF90EF90DF90CF9066
:100500000895CF93DF931F92CDB7DEB7259A2D982C
:100510000E9426020E944702789408E211E0F80146
:1005200001900020E9F73197BF016852714041E026
:10053000C8010E947501F80101900020E9F7319788
:10054000E852F1401E2F112389F01A3038F441E0AF
:100550006AE088E291E00E947501F5CF40E06AE030
:1005600088E291E00E947501181BEDCF00E010E0D9
:1005700061E084E891E00E94E40190E00197080FB7
:10058000191F0D3281E0180798F30E94C10114E190
:10059000BE016F5F7F4F84E892E00E948B00115094
:1005A000B9F78091C60281117CC016E000E21150BB
:1005B00051F085B1802785B968EE73E080E090E066
:1005C0000E945B02F4CF1FEF2D980E94C10104E14D
:1005D000BE016F5F7F4F84E892E00E948B00015064
:1005E000B9F78091C602811166C000E285B180270B
:1005F00085B968EE73E080E090E00E945B021150E4
:10060000A9F72D9801E711E0F80101900020E9F722
:100610003197BF016157714040E081E791E00E944E
:100620007501811102C02D9AEFCFF80101900020D1
:10063000E9F73197BF016157714040E081E791E0F0
:100640000E947501F80101900020E9F73197E15708
:10065000F14090E08E179F0799F02D98D5CF2D98F7
:100660006AE084E891E00E94E4018B30C9F364E819
:1006700071E081E091E00E946403892B81F42D9A5E
:100680006EEF84E891E00E94E40164E871E081E0AB
:1006900091E00E946403892B11F72D9AE1CF2D98E8
:1006A000EFCF2D9A68E873E180E090E00E945B0252
:1006B0002D9815E089CF2D9A68E873E180E090E0ED
:1006C0000E945B022D989DCFFB01DC018D91019072
:0E06D00080190110D9F3990B0895F894FFCF0B
:1006DE0001446573656E766F6C76696D656E746FC9
:1006EE002064652073697374656D617320656D6236
:1006FE0061726361646F7300556E697665727369BA
:10070E0064616465204665646572616C2064652071
:10071E005065726E616D6275636F0A4465706172C9
:10072E0074616D656E746F20646520456C657472BE
:10073E006F6E69636120652053697374656D6173B3
:0C074E00000001110213047E057D06006E
:00000001FF
