:100000000C9434000C9451000C9451000C94510049
:100010000C9451000C9451000C9451000C9451001C
:100020000C9451000C9451000C9451000C943B0121
:100030000C9451000C9451000C9451000C945100FC
:100040000C9451000C9451000C94AB000C94FD00E6
:100050000C9451000C9451000C9451000C945100DC
:100060000C9451000C94510011241FBECFEFD8E026
:10007000DEBFCDBF11E0A0E0B1E0E0E5F7E002C0F7
:1000800005900D92AC37B107D9F713E0ACE7B1E0BA
:1000900001C01D92AA30B107E1F70E9480020C94C2
:1000A000A6030C940000FC01E05CFF4F119211923A
:1000B0001082089520E0FC01EE5BFF4F80818034C8
:1000C00009F421E0822F089520E0FC01EE5BFF4F50
:1000D0008081882309F421E0822F0895CF93DF9354
:1000E000DC01EC01CE5BDF4F2881203421F480E07D
:1000F000DF91CF910895FC01E05CFF4F808190E09B
:10010000A80FB91F6C9301968F73907080832F5F37
:10011000288381E0EDCFCF93DF93DC01EC01CE5B50
:10012000DF4F8881882319F4DF91CF910895FD0175
:10013000EF5BFF4F8081A80FB11D8C91DB018C9389
:10014000808190E001968F739070808388818150C8
:10015000888381E0E9CF1F920F920FB60F9211248E
:100160002F933F934F935F936F937F938F939F93BF
:10017000AF93BF93EF93FF936091C6006D3721F467
:1001800081E080937F0128C0613141F480917F013B
:100190008823C1F481E080937C011EC0633139F46F
:1001A00080917F01882371F410927C0115C06E3715
:1001B00029F480917F01882329F40AC0633111F06A
:1001C0006E3731F480917F01813011F410927F01FC
:1001D00084E892E00E946E00FF91EF91BF91AF9191
:1001E0009F918F917F916F915F914F913F912F914F
:1001F0000F900FBE0F901F9018951F920F920FB681
:100200000F9211242F933F934F935F936F937F939C
:100210008F939F93AF93BF93EF93FF93DF93CF930E
:100220000F92CDB7DEB780910903882331F4809116
:10023000C1008F7D8093C1000AC087EC92E0BE01AF
:100240006F5F7F4F0E948B0089818093C6000F9063
:10025000CF91DF91FF91EF91BF91AF919F918F91DE
:100260007F916F915F914F913F912F910F900FBEB2
:100270000F901F9018951F920F920FB60F92112496
:100280008F939F93AF93BF9380918002909181024F
:10029000A0918202B09183020196A11DB11D8093AD
:1002A000800290938102A0938202B0938302BF9157
:1002B000AF919F918F910F900FBE0F901F90189547
:1002C00080917C01811181E00895682F809109035C
:1002D000803451F087EC92E00E946E008091C10062
:1002E00080628093C1000895FFCF81E10E94650183
:1002F00081E080930001089583E10E9465011092DE
:1003000000010895DF93CF930F92CDB7DEB78091B0
:10031000C602882361F084E892E0BE016F5F7F4FE0
:100320000E948B0089810F90CF91DF910895FFCFBC
:100330005198509A1092C00082E08093C50085ECDD
:100340008093C400E1ECF0E088EF808380818B7FB4
:10035000808386E08093C2001092C4021092C5028E
:100360001092C6021092070310920803109209031C
:100370000895E1E8F0E0808188608083AFE6B0E036
:100380008C9182608C9380818360808389EF90E080
:1003900090938900809388000895EF92FF920F93C5
:1003A0001F937B018C01209180023091810240914A
:1003B0008202509183028091800290918102A091EB
:1003C0008202B0918302821B930BA40BB50B8E1596
:1003D0009F05A007B10778F31F910F91FF90EF9051
:1003E00008950F931F93CF93DF93EC01162F00E036
:1003F0002EC00E948201482F80910001882311F4B1
:1004000000E028C020917D014E3731F4C20FD11D8C
:10041000188210927D011EC0822F90E0DE010D90A7
:100420000020E9F71197AC1BBD0B312F3150FE01B5
:10043000E80FF91FA817B90720F4108210927D0168
:1004400008C040830F5F2F5F20937D01132F11237E
:1004500081F6012F802FDF91CF911F910F91089589
:10046000BF92CF92DF92EF92FF920F931F93CF93A1
:10047000DF937C01C62EB42EDD242EC080917C013A
:10048000882311F4DD2431C000917E01C02FD0E01B
:10049000F70101900020E9F73197EE19FF09EC17F9
:1004A000FD0728F0CE0DDF1D1881112319F41092DD
:1004B0007E0114C0113131F0133121F01E3711F0DB
:1004C0001D3719F48DE70E946501812F0E94650197
:1004D000D3940F5F00937E01CD1481F6BB2029F0E9
:1004E0008EE70E94650110927E018D2DDF91CF91E4
:1004F0001F910F91FF90EF90DF90CF90BF900895E4
:100500000F931F93CF93DF93259A2D980E94980104
:100510000E94B901789401E011E0F80101900020F7
:10052000E9F73197E01BF10BC8016E2F41E00E9403
:100530003002F80101900020E9F78F0101501040CE
:100540000150114010C00A3038F481E091E06AE0B7
:1005500041E00E94300207C081E091E06AE040E0A3
:100560000E943002081B002371F7C0E0D0E080E851
:1005700091E061E00E94F10190E00197C80FD91F5E
:10058000F1E0CD32DF0798F30E947C0180917C017D
:10059000882319F405E060E226C02D9A209180029C
:1005A0003091810240918202509183021FC085B137
:1005B000862785B920918002309181024091820284
:1005C000509183028091800290918102A0918202D9
:1005D000B0918302821B930BA40BB50B885E9340F2
:1005E000A040B04078F3015010F713C08091800212
:1005F00090918102A0918202B0918302821B930BA1
:10060000A40BB50B88589341A040B04078F32D98C7
:1006100005E02D980E947C0180917C01882351F097
:100620002D9A209180023091810240918202509156
:10063000830220C060E285B1862785B920918002BF
:100640003091810240918202509183028091800218
:1006500090918102A0918202B0918302821B930B40
:10066000A40BB50B885E9340A040B04078F30150D6
:1006700011F712C08091800290918102A0918202B4
:10068000B0918302821B930BA40BB50B8858934146
:10069000A040B04078F32D982D98CAE4D1E0FE0137
:1006A00001900020E9F73197EA54F1408AE491E0A3
:1006B0006E2F40E00E943002882311F42D9AEFCF74
:1006C000FE0101900020E9F73197EA54F1408AE4F5
:1006D00091E06E2F40E00E943002FE010190002068
:1006E000E9F73197EA54F14090E08E179F0711F037
:1006F0002D98D5CF80E891E06EEF0E94F10184E55E
:1007000091E060E871E00E949D03009711F42D9A3A
:1007100001C02D9880E891E06AE00E94F1018B30E1
:10072000C9F384E591E060E871E00E949D030097C1
:1007300011F42D9ADFCF2D98DDCFFB01DC018D91D7
:10074000019080190110D9F3990B0895F894FFCF07
:1007500001556E69766572736964616465204665EA
:10076000646572616C206465205065726E616D62B3
:1007700075636F0A446570617274616D656E746F44
:1007800020646520456C6574726F6E6963612065D5
:100790002053697374656D617300000111021304C5
:1007A0007E057D06446573656E766F6C76696D6552
:1007B0006E746F2064652073697374656D61732056
:0C07C000656D6261726361646F7300001C
:00000001FF
